:100000000C94A2000C94CA000C94CA000C94CA0070
:100010000C94CA000C94CA000C94CA000C94CA0038
:100020000C94CA000C94CA000C94CA000C94CA0028
:100030000C94CA000C94CA000C94CA000C94CA0018
:100040000C945E060C94CA000C942C060C940606C4
:100050000C94CA000C94CA000C94CA000C94CA00F8
:100060000C94CA000C94CA007E306D79335B5F70CB
:100070007F7B771F0D3D4F47000000000000000010
:100080000000000000000000000000000000000070
:1000900000000000800180007E306D79335B5F706E
:1000A0007F7B00000000000000771F0D3D4F4700E0
:1000B000370000000E000000670000000000000094
:1000C000000000000000000800771F0D3D4F4700B2
:1000D000370000000E00151D670000000000000042
:1000E00000000000000000000000000024002700C5
:1000F0002A0000000000250028002B00000000005E
:100100002300260029000404040404040404020259
:100110000202020203030303030301020408102086
:100120004080010204081020010204081020000091
:1001300000080002010000030407000000000000A6
:100140000000A80611241FBECFEFD8E0DEBFCDBF50
:1001500011E0A0E0B1E0ECE4F5E102C005900D9201
:10016000A634B107D9F722E0A6E4B1E001C01D92A0
:10017000AA3CB207E1F710E0C2EAD0E004C0219740
:10018000FE010E949E0AC13AD107C9F70E94A20748
:100190000C94A40A0C94000096E0899FD0011124CD
:1001A000A55ABD4F90967C936E935F9791E0919680
:1001B0009C939197E091C802F091C9029091C70277
:1001C000992339F0309751F0811108C0809177025E
:1001D0000994309719F05C968C91FACF0895AF92FC
:1001E000BF92CF92DF92EF92FF920F931F93CF9324
:1001F000DF936C017B018B01040F151FEB015E0186
:10020000AE18BF08C017D10759F06991D601ED911A
:10021000FC910190F081E02DC6010995892B79F7B9
:10022000C501DF91CF911F910F91FF90EF90DF906B
:10023000CF90BF90AF900895FC01538D448D252F32
:1002400030E0842F90E0821B930B541710F0CF9670
:10025000089501970895FC01918D828D981761F0A2
:10026000A28DAE0FBF2FB11D5D968C91928D9F5FB9
:100270009F73928F90E008958FEF9FEF0895FC0198
:10028000918D828D981731F0828DE80FF11D858D4B
:1002900090E008958FEF9FEF0895FC01918D228DDE
:1002A000892F90E0805C9F4F821B91098F73992763
:1002B000089585E691E00E944D0121E0892B09F423
:1002C00020E0822F089580E090E0892B29F00E94A1
:1002D000590181110C9400000895FC01A48DA80F10
:1002E000B92FB11DA35ABF4F2C91848D90E0019678
:1002F0008F739927848FA689B7892C93A089B18998
:100300008C91837080648C93938D848D981306C038
:100310000288F389E02D80818F7D80830895EF929C
:10032000FF920F931F93CF93DF93EC0181E0888FAF
:100330009B8D8C8D98131AC0E889F989808185FF7F
:1003400015C09FB7F894EE89FF896083E889F98921
:1003500080818370806480839FBF81E090E0DF9123
:10036000CF911F910F91FF90EF900895F62E0B8D76
:1003700010E00F5F1F4F0F731127E02E8C8D8E1131
:100380000CC00FB607FCFACFE889F989808185FF98
:10039000F5CFCE010E946D01F1CFEB8DEC0FFD2F5B
:1003A000F11DE35AFF4FF0829FB7F8940B8FEA8953
:1003B000FB8980818062CFCFCF93DF93EC01888D62
:1003C0008823B9F0AA89BB89E889F9898C9185FDD0
:1003D00003C0808186FD0DC00FB607FCF7CF8C915E
:1003E00085FFF2CF808185FFEDCFCE010E946D01A8
:1003F000E9CFDF91CF910895833081F028F48130E7
:1004000099F08230A9F008958730A9F08830C9F0BA
:100410008430B1F4809180008F7D03C08091800092
:100420008F7780938000089584B58F7784BD089579
:1004300084B58F7DFBCF8091B0008F778093B00023
:1004400008958091B0008F7DF9CFCF93DF93282F4F
:1004500030E0F901E25DFE4F8491F901E65EFE4F66
:10046000D491F901EA5FFE4FC491CC23A1F0811130
:100470000E94FC01EC2FF0E0EE0FFF1FE450FF4F55
:10048000A591B491EC91ED2381E090E009F480E036
:10049000DF91CF91089580E090E0FACF862F0C9401
:1004A00025021F93CF93DF93282F30E0F901E25DFF
:1004B000FE4F8491F901E65EFE4FD491F901EA5FA7
:1004C000FE4FC491CC23A9F0162F81110E94FC018C
:1004D000EC2FF0E0EE0FFF1FEE50FF4FA591B4910F
:1004E0008FB7F894EC91111108C0D095DE23DC93FE
:1004F0008FBFDF91CF911F910895DE2BF8CF862F0C
:10050000642F0C945102CF93DF9390E0FC01E65EE0
:10051000FE4F24918A5F9E4FFC0184918823C9F08D
:1005200090E0880F991FFC01E851FF4FA591B4910D
:10053000FC01EE50FF4FC591D49161110DC09FB7E2
:10054000F8948C91209582238C938881282328838A
:100550009FBFDF91CF910895623051F49FB7F89417
:100560003C91822F809583238C93E8812E2BEFCFB3
:100570008FB7F894EC912E2B2C938FBFEACF862F58
:10058000642F0C9483023FB7F89480914B019091B3
:100590004C01A0914D01B0914E0126B5A89B05C01C
:1005A0002F3F19F00196A11DB11D3FBFBA2FA92FF2
:1005B000982F8827BC01CD01620F711D811D911DEF
:1005C00042E0660F771F881F991F4A95D1F708955B
:1005D0008F929F92AF92BF92CF92DF92EF92FF9253
:1005E0004B015C010E94C3026B017C010E94C302AB
:1005F0006C197D098E099F09683E7340810591053C
:10060000A8F321E0821A9108A108B10888EEC80E6B
:1006100083E0D81EE11CF11C81149104A104B104F3
:1006200029F7FF90EF90DF90CF90BF90AF909F9011
:100630008F9008952FB7F894609147017091480109
:100640008091490190914A012FBF08950F931F9304
:10065000CF93DF93C82FD62F86E0C89FF0011124D7
:10066000E55AFD4F11A2878D90A181309105F1F0DF
:1006700058F082309105F1F1039709F440C0DF9101
:10068000CF911F910F9108956623C9F361E070E047
:100690008C2F0E94CC000E941A036093B3027093C7
:1006A000B4028093B5029093B602E9CF0E941A0378
:1006B0000091B3021091B4022091B5023091B602BC
:1006C000AB01BC01401B510B620B730B8091C50247
:1006D0009091C602B0E0A0E084179507A607B7077F
:1006E00048F462E070E08C2FDF91CF911F910F9161
:1006F0000C94CC0063E070E0D111C1CFF4CF70E076
:1007000060E0F1CF6F927F928F929F92AF92BF92F3
:10071000CF92DF92EF92FF920F931F93CF93DF93CD
:1007200081E08093C7020E941A030091B7021091E2
:10073000B8022091B9023091BA02AB01BC01401B52
:10074000510B620B730B8091C3029091C402B0E015
:10075000A0E084179507A607B70708F014C1C0E00A
:100760008091C102C81760F4E091BD02F091BE0211
:10077000EC0FF11D62E080810E948302CF5FF0CF19
:10078000712C812C912C540183948091C202781693
:1007900008F05FC0072D10E0E091BF02F091C002A9
:1007A000E00FF11F61E080810E948302E091BF02AF
:1007B000F091C002E00FF11F60E080810E945102C1
:1007C000D501C401072C04C0880F991FAA1FBB1FA5
:1007D0000A94D2F76C017C01E094F094612C809132
:1007E000C1026816F8F4C62DD0E0E091BD02F09188
:1007F000BE02EC0FFD1F80810E9425022496CC0FC3
:10080000DD1FC55ADD4F892B41F4888199818C29E0
:100810009D29998388836394E2CF888199818E2171
:100820009F21F7CFE091BF02F091C002E00FF11FCE
:1008300061E080810E9451028091BF029091C002CC
:10084000080F191F60E0F80180810E9483027394F1
:100850009CCFCBE5D2E0FE018FEF9FEF278D30A13B
:10086000232B21F4148E968F858F11A2369622E0C9
:10087000E739F20799F7F12C96E0D92E8091C10261
:10088000F81608F050C0E12C0F2D10E0000F111FDA
:100890000D591D4F2091C202E21608F042C0F80126
:1008A000608171810E2C02C0769567950A94E2F7FB
:1008B000F29E900111242E0D311DEBE5F2E080E057
:1008C000458D568D2417350709F461C08F5F369624
:1008D0008A30B1F760FF23C0EBE5F2E090E080E002
:1008E000448D411117C0E091BB02F091BC02E20FB0
:1008F000F31F4081D89EF001D99EF00D1124E55AD6
:10090000FD4F448F368F258F10A2178E61E00E9415
:10091000260305C0019636968A30910509F7E394BF
:10092000B9CFF394ABCF10E089A18111182F26968F
:10093000F2E0C739DF07C1F70E941A036093B702DC
:100940007093B8028093B9029093BA021123D9F040
:1009500080917C028823B9F080917A0290917B0289
:10096000019789F480917702DF91CF911F910F91C8
:10097000FF90EF90DF90CF90BF90AF909F908F90BF
:100980007F906F9008951092C70280E0EDCF617064
:10099000BECFAF92BF92CF92DF92EF92FF920F93B2
:1009A0001F93CF93DF9300D0CDB7DEB769834A831F
:1009B000880F991F0091590210915A02000F111FC0
:1009C000E3E0F2E09F01235032402017310714F496
:1009D0001192F8CF2981FC01ED5FFD4F21838A81BF
:1009E000808360E0809157020E9451021016110628
:1009F00034F501501109F801ED5FFD4FC080B09052
:100A00005502A090530287E0E82EF12CD12CB601BC
:100A10000E2C02C0759567950A94E2F761708A2DD5
:100A20000E94510261E08B2D0E94510260E08B2DEB
:100A30000E94510281E0E81AF10848F7D7CF61E03F
:100A4000809157020F900F90DF91CF911F910F91DE
:100A5000FF90EF90DF90CF90BF90AF900C94510239
:100A6000EF92FF921F93CF93DF9320915902309121
:100A70005A0282179307B4F4EC0123E0880F991F00
:100A80002A95E1F79C012D5E3D4F790111E0F701B8
:100A900011927F0140E0612FCE010E94C9041F5FC7
:100AA0001930A9F7DF91CF911F91FF90EF90089532
:100AB0002091590230915A0212161306B4F488306C
:100AC000910599F020E830E002C0359527956A95A8
:100AD000E2F7FC01ED5FFD4F4089422B408B61E066
:100AE000680F90E080E00C94C90408957F928F9283
:100AF0009F92AF92BF92CF92DF92EF92FF920F93AD
:100B00001F93CF93DF935B01009157011091580120
:100B1000892B11F404E010E0D0E0C0E083E0E82E7F
:100B200082E0F82E97E0C92ED12C28E0722E38E60C
:100B3000832E30E0932E8091590290915A02C01773
:100B4000D10734F1181619068CF4C6018C1B9D0BC5
:100B5000089764F4F4014491F701EC1BFD0B478BFB
:100B6000672D6C1B90E080E00E94C9042196C43080
:100B7000D10509F7DF91CF911F910F91FF90EF9071
:100B8000DF90CF90BF90AF909F908F907F9008950F
:100B9000181619065CF7C6018C1B9D0B089734F7D5
:100BA000F501EC0FFD1FE081E7FDE0E20E2E000CE9
:100BB000FF0BE859FF4F4491F701EC1BFD0B478BEE
:100BC000672D6C1BCFCF42E050E069E371E085E612
:100BD00091E00C94EF00CF93DF93D0E0C0E000975A
:100BE00071F0FC0101900020E9F73197AF01481B3B
:100BF000590BBC0185E691E00E94EF00EC010E94D8
:100C0000E3058C0F9D1FDF91CF9108951F920F92E6
:100C10000FB60F9211242F933F934F935F936F93CF
:100C20007F938F939F93AF93BF93EF93FF9385E64B
:100C300091E00E946D01FF91EF91BF91AF919F9163
:100C40008F917F916F915F914F913F912F910F9075
:100C50000FBE0F901F9018951F920F920FB60F9214
:100C600011242F938F939F93EF93FF93E09175013E
:100C7000F09176018081E0917B01F0917C0182FD11
:100C80001BC0908180917E018F5F8F7320917F01C7
:100C9000821741F0E0917E01F0E0EB59FE4F958F15
:100CA00080937E01FF91EF919F918F912F910F90F3
:100CB0000FBE0F901F9018958081F4CF1F920F9256
:100CC0000FB60F9211242F933F938F939F93AF935F
:100CD000BF938091470190914801A0914901B09143
:100CE0004A013091460123E0230F2D3758F5019634
:100CF000A11DB11D209346018093470190934801A7
:100D0000A0934901B0934A0180914B0190914C010D
:100D1000A0914D01B0914E010196A11DB11D80938E
:100D20004B0190934C01A0934D01B0934E01BF91A4
:100D3000AF919F918F913F912F910F900FBE0F9088
:100D40001F90189526E8230F0296A11DB11DD2CF42
:100D5000CF93DF93109268011092670188EE93E0C1
:100D6000A0E0B0E08093690190936A01A0936B01C9
:100D7000B0936C0181E291E09093660180936501EC
:100D800085EC90E0909372018093710184EC90E087
:100D9000909374018093730180EC90E090937601BE
:100DA0008093750181EC90E09093780180937701B6
:100DB00082EC90E090937A018093790186EC90E048
:100DC00090937C0180937B0110927E0110927F01B1
:100DD000109280011092810110925D0210926102C6
:100DE000109260021092620283E391E090935C02A1
:100DF00080935B02E7E7F2E010821482138215828F
:100E0000369682E0E33BF807B9F785E091E09093EE
:100E1000BE028093BD0281E091E09093C002809376
:100E2000BF0284E08093C1028093C20289E091E016
:100E30009093BC028093BB028AE090E09093C4023E
:100E40008093C30224EF31E03093C6022093C502A1
:100E50001092C9021092C8021092B7021092B80202
:100E60001092B9021092BA021092C702CCE0D0E000
:100E7000D0935402C093530290935602809355022C
:100E80008BE090E0909358028093570281E090E0CD
:100E900090935A028093590261E08CE00E94830291
:100EA00061E0809155020E94830261E080915702C7
:100EB0000E94830261E0809157020E945102D09308
:100EC0005402C0935302E3E1F2E083E592E0119211
:100ED0008E179F07E1F7D0E0C0E080915902909112
:100EE0005A02C817D9073CF540E06FE0CE010E94D6
:100EF000C9048091590290915A02C817D9072CF45D
:100F000047E06BE0CE010E94C90440E069E0CE01F9
:100F10000E94C904CE010E9430058091590290912F
:100F20005A02C817D9072CF440E06CE0CE010E94A9
:100F3000C9042196D2CF0E94820380930202DF91DE
:100F4000CF910895789484B5826084BD84B5816022
:100F500084BD85B5826085BD85B5816085BD809184
:100F60006E00816080936E001092810080918100FC
:100F700082608093810080918100816080938100F4
:100F8000809180008160809380008091B1008460B6
:100F90008093B1008091B00081608093B000809117
:100FA0007A00846080937A0080917A0082608093D6
:100FB0007A0080917A00816080937A0080917A0033
:100FC000806880937A001092C100E0917501F091E1
:100FD000760182E08083E0917101F09172011082CC
:100FE000E0917301F09174018FEC808310927D0188
:100FF000E0917901F0917A0186E08083E0917701B8
:10100000F0917801808180618083E0917701F09197
:101010007801808188608083E0917701F091780188
:10102000808180688083E0917701F09178018081F0
:101030008F7D80838091590290915A02181619066B
:1010400034F441E06CE090E080E00E94C9048091BB
:10105000590290915A021816190634F448E06AE0D1
:1010600090E080E00E94C90490E080E00E9430059A
:10107000109258011092570110924F0190E080E0B9
:101080000E9430058CE391E00E94EB053DE5A32E24
:1010900031E0B32E4AE0442E512C03E511E058E52F
:1010A000D52E60E0E62E60E0F62E21E4622E92E47A
:1010B000792ECC24C394809100018111F2C00E944A
:1010C0008203982E8093020265E070E080E090E059
:1010D0000E94E802992099F3692D85E691E00E942B
:1010E0008F010E94E305209102022A32D9F48091F7
:1010F000570190915801181619060CF7FC01E15B95
:10110000FE4F10820197909358018093570190E011
:1011100080E00E9430056FE471E081E090E00E9481
:101120007605CDCF213421F569E571E090E080E0CE
:101130000E94760589E591E00E94EB0568EE73E078
:1011400080E090E00E94E80210925801109257014E
:1011500010924F01C0920001E114F10409F4ABCFE9
:101160000E945901882309F4A2CF0E9400009DCF5C
:10117000233209F07DC08091570190915801049766
:1011800009F09DCF809159018093610180915A01AE
:101190008093620180915B018093630180915C0187
:1011A00080936401AFE4B1E081E691E0FD0150E09D
:1011B00040E03191EC012991CE0132130CC04F5F18
:1011C0005F4F9F0121503109E901D8829C012150D4
:1011D0003109E901D8820E171F0759F730E020E0E6
:1011E0009D90D8E59D16A1F061E671E090E080E069
:1011F000EB018990BE01981036C02F5F3F4FBD01B3
:1012000061507109EB01D882875A9E4FEC01D88654
:10121000AE17BF0729F7405D40935D0160925E0104
:10122000205D20935F01709260016DE571E090E0B8
:1012300080E00E947605109258011092570110929A
:101240004F0180915D01843309F039CF68EE73E07E
:1012500080E090E00E94E80210924F0190E080E070
:101260000E94300577CF01968430910509F6D0CFE2
:101270008FEB820F843008F422CF80915701909138
:101280005801853091050CF01ACFAC014F5F5F4FCC
:101290005093580140935701815B9E4FFC0120837E
:1012A0003ACF912C812C61E070E0C4010E94580576
:1012B00064E070E0C4010E945805FFEF8F1A9F0A96
:1012C00088E08816910479F762E070E090E080E0B1
:1012D0000E94580563E070E090E080E00E945805AD
:1012E00066E070E087E090E00E94580565E070E0FD
:1012F00087E090E00E9458050E948203982E809318
:10130000020265E070E080E090E00E94E802C1E443
:101310009C12F2CF61E485E691E00E948F010E9469
:10132000E305109258011092570110924F0190E07E
:1013300080E00E9430050E941A03CB010E94080A37
:1013400089E5882E81E0982E0E94030AB2010E944E
:10135000760A805DF40181934F01AE16BF06A1F7B6
:1013600089E591E00E94EB0510920001F5CE8F9285
:101370009F92AF92BF92CF92DF92EF92FF92CF9364
:10138000DF93EC01688179818A819B816115710508
:101390008105910521F464E279ED8BE597E02DE17B
:1013A00033EF41E050E00E94130A49015A019B01CA
:1013B000AC01A7EAB1E40E94320A6B017C01ACEEF9
:1013C000B4EFA50194010E94400ADC01CB018C0D11
:1013D0009D1DAE1DBF1DB7FF03C00197A109B048F9
:1013E00088839983AA83BB839F77DF91CF91FF90F6
:1013F000EF90DF90CF90BF90AF909F908F90089527
:101400000E94B709089589E191E00E94B709089503
:10141000B0E0A0E08093190190931A01A0931B0102
:10142000B0931C010895052E97FB1EF400940E94B2
:101430002A0A57FD07D00E94450A07FC03D04EF444
:101440000C942A0A50954095309521953F4F4F4F67
:101450005F4F089590958095709561957F4F8F4F60
:101460009F4F08950E94670AA59F900DB49F900D0D
:10147000A49F800D911D11240895B7FF0C94320A8A
:101480000E94320A821B930B0895A1E21A2EAA1B16
:10149000BB1BFD010DC0AA1FBB1FEE1FFF1FA21724
:1014A000B307E407F50720F0A21BB30BE40BF50B21
:1014B000661F771F881F991F1A9469F760957095AA
:1014C000809590959B01AC01BD01CF010895A29F2D
:1014D000B001B39FC001A39F700D811D1124911D08
:1014E000B29F700D811D1124911D089597FB072E49
:1014F00016F4009407D077FD09D00E948A0A07FCF1
:1015000005D03EF4909581959F4F08957095619513
:101510007F4F0895AA1BBB1B51E107C0AA1FBB1F29
:10152000A617B70710F0A61BB70B881F991F5A956F
:10153000A9F780959095BC01CD010895EE0FFF1F8E
:0C1540000590F491E02D0994F894FFCF81
:10154C0001050403020908070631323341343536EC
:10155C0042373839432A3023440100000000000090
:10156C00008F01EF001C01DC014D012B013F01003C
:10157C00000000BF027F024E020D0A005665727316
:06158C00696F6E303600AD
:107E0000112484B714BE81FFF0D085E080938100F7
:107E100082E08093C00088E18093C10086E0809377
:107E2000C20080E18093C4008EE0C9D0259A86E02C
:107E300020E33CEF91E0309385002093840096BBD3
:107E4000B09BFECF1D9AA8958150A9F7CC24DD24C4
:107E500088248394B5E0AB2EA1E19A2EF3E0BF2EE7
:107E6000A2D0813461F49FD0082FAFD0023811F036
:107E7000013811F484E001C083E08DD089C08234E0
:107E800011F484E103C0853419F485E0A6D080C0E4
:107E9000853579F488D0E82EFF2485D0082F10E0AE
:107EA000102F00270E291F29000F111F8ED06801E7
:107EB0006FC0863521F484E090D080E0DECF843638
:107EC00009F040C070D06FD0082F6DD080E0C81688
:107ED00080E7D80618F4F601B7BEE895C0E0D1E017
:107EE00062D089930C17E1F7F0E0CF16F0E7DF06D8
:107EF00018F0F601B7BEE89568D007B600FCFDCFD4
:107F0000A601A0E0B1E02C9130E011968C91119780
:107F100090E0982F8827822B932B1296FA010C0160
:107F200087BEE89511244E5F5F4FF1E0A038BF0790
:107F300051F7F601A7BEE89507B600FCFDCF97BE46
:107F4000E89526C08437B1F42ED02DD0F82E2BD052
:107F50003CD0F601EF2C8F010F5F1F4F84911BD097
:107F6000EA94F801C1F70894C11CD11CFA94CF0C13
:107F7000D11C0EC0853739F428D08EE10CD085E9AC
:107F80000AD08FE07ACF813511F488E018D01DD067
:107F900080E101D065CF982F8091C00085FFFCCF94
:107FA0009093C60008958091C00087FFFCCF809118
:107FB000C00084FD01C0A8958091C6000895E0E648
:107FC000F0E098E1908380830895EDDF803219F02E
:107FD00088E0F5DFFFCF84E1DECF1F93182FE3DFCA
:107FE0001150E9F7F2DF1F91089580E0E8DFEE27F6
:047FF000FF270994CA
:027FFE00040479
:0400000300007E007B
:00000001FF
