:100000000C94A2000C94CA000C94CA000C94CA0070
:100010000C94CA000C94CA000C94CA000C94CA0038
:100020000C94CA000C94CA000C94CA000C94CA0028
:100030000C94CA000C94CA000C94CA000C94CA0018
:100040000C942C050C94CA000C94FA040C94D4045F
:100050000C94CA000C94CA000C94CA000C94CA00F8
:100060000C94CA000C94CA00000000002400270071
:100070002A0000000000250028002B0000000000DE
:1000800023002600290004040404040404040202DA
:100090000202020203030303030301020408102007
:1000A0004080010204081020010204081020000012
:1000B0000008000201000003040700000000000027
:1000C00000007E306D79335B5F707F7B771F0D3D65
:1000D0004F4700000000000000000000000000008A
:1000E000000000000000000000000000000080018F
:1000F00080007E306D79335B5F707F7B0000000095
:10010000000000771F0D3D4F4700370000000E0034
:100110000000670000000000000000000000000078
:10012000000800771F0D3D4F4700370000000E000C
:10013000151D670000000000000000000000000026
:100140000000760511241FBECFEFD8E0DEBFCDBF83
:1001500011E0A0E0B1E0E4EAF4E102C005900D9204
:10016000AC33B107D9F722E0ACE3B1E001C01D9296
:10017000AE3BB207E1F710E0C2EAD0E004C021973D
:10018000FE010E944A0AC13AD107C9F70E946C06D3
:100190000C94500A0C94000096E0899FD001112421
:1001A000A15BBD4F90967C936E935F9791E0919683
:1001B0009C939197E091BC02F091BD029091BB029B
:1001C000992339F0309751F0811108C080916B026A
:1001D0000994309719F05C968C91FACF0895AF92FC
:1001E000BF92CF92DF92EF92FF920F931F93CF9324
:1001F000DF936C017B018B01040F151FEB015E0186
:10020000AE18BF08C017D10759F06991D601ED911A
:10021000FC910190F081E02DC6010995892B79F7B9
:10022000C501DF91CF911F910F91FF90EF90DF906B
:10023000CF90BF90AF900895FC01538D448D252F32
:1002400030E0842F90E0821B930B541710F0CF9670
:10025000089501970895FC01918D828D981761F0A2
:10026000A28DAE0FBF2FB11D5D968C91928D9F5FB9
:100270009F73928F90E008958FEF9FEF0895FC0198
:10028000918D828D981731F0828DE80FF11D858D4B
:1002900090E008958FEF9FEF0895FC01918D228DDE
:1002A000892F90E0805C9F4F821B91098F73992763
:1002B00008958AE591E00E944D0121E0892B09F41F
:1002C00020E0822F089580E090E0892B29F00E94A1
:1002D000590181110C9400000895FC01A48DA80F10
:1002E000B92FB11DA35ABF4F2C91848D90E0019678
:1002F0008F739927848FA689B7892C93A089B18998
:100300008C91837080648C93938D848D981306C038
:100310000288F389E02D80818F7D80830895EF929C
:10032000FF920F931F93CF93DF93EC0181E0888FAF
:100330009B8D8C8D98131AC0E889F989808185FF7F
:1003400015C09FB7F894EE89FF896083E889F98921
:1003500080818370806480839FBF81E090E0DF9123
:10036000CF911F910F91FF90EF900895F62E0B8D76
:1003700010E00F5F1F4F0F731127E02E8C8D8E1131
:100380000CC00FB607FCFACFE889F989808185FF98
:10039000F5CFCE010E946D01F1CFEB8DEC0FFD2F5B
:1003A000F11DE35AFF4FF0829FB7F8940B8FEA8953
:1003B000FB8980818062CFCFCF93DF93EC01888D62
:1003C0008823B9F0AA89BB89E889F9898C9185FDD0
:1003D00003C0808186FD0DC00FB607FCF7CF8C915E
:1003E00085FFF2CF808185FFEDCFCE010E946D01A8
:1003F000E9CFDF91CF910895833081F028F48130E7
:1004000099F08230A9F008958730A9F08830C9F0BA
:100410008430B1F4809180008F7D03C08091800092
:100420008F7780938000089584B58F7784BD089579
:1004300084B58F7DFBCF8091B0008F778093B00023
:1004400008958091B0008F7DF9CFCF93DF93282F4F
:1004500030E0F901E255FF4F8491F901E656FF4F74
:10046000D491F901EA57FF4FC491CC23A1F0811137
:100470000E94FC01EC2FF0E0EE0FFF1FE458FF4F4D
:10048000A591B491EC91ED2381E090E009F480E036
:10049000DF91CF91089580E090E0FACF862F0C9401
:1004A00025021F93CF93DF93282F30E0F901E25507
:1004B000FF4F8491F901E656FF4FD491F901EA57B5
:1004C000FF4FC491CC23A9F0162F81110E94FC018B
:1004D000EC2FF0E0EE0FFF1FEE58FF4FA591B49107
:1004E0008FB7F894EC91111108C0D095DE23DC93FE
:1004F0008FBFDF91CF911F910895DE2BF8CF862F0C
:10050000642F0C945102CF93DF9390E0FC01E656E8
:10051000FF4F24918A579F4FFC0184918823C9F093
:1005200090E0880F991FFC01E859FF4FA591B49105
:10053000FC01EE58FF4FC591D49161110DC09FB7DA
:10054000F8948C91209582238C938881282328838A
:100550009FBFDF91CF910895623051F49FB7F89417
:100560003C91822F809583238C93E8812E2BEFCFB3
:100570008FB7F894EC912E2B2C938FBFEACF862F58
:10058000642F0C9483023FB7F894809141019091BD
:100590004201A0914301B091440126B5A89B05C03A
:1005A0002F3F19F00196A11DB11D3FBFBA2FA92FF2
:1005B000982F8827BC01CD01620F711D811D911DEF
:1005C00042E0660F771F881F991F4A95D1F708955B
:1005D0008F929F92AF92BF92CF92DF92EF92FF9253
:1005E0000E94C3024B015C0188EEC82E83E0D82E26
:1005F000E12CF12C0E94C302681979098A099B0930
:10060000683E734081059105A8F321E0C21AD10824
:10061000E108F10888EE880E83E0981EA11CB11C49
:10062000C114D104E104F10429F7FF90EF90DF90A9
:10063000CF90BF90AF909F908F9008952FB7F89470
:1006400060913D0170913E0180913F019091400188
:100650002FBF08950F931F93CF93DF93C82FD62FEB
:1006600086E0C89FF0011124E15BFD4F11A2878D48
:1006700090A181309105F1F058F082309105F1F1AF
:10068000039709F440C0DF91CF911F910F91089516
:100690006623C9F361E070E08C2F0E94CC000E94B9
:1006A0001E036093A7027093A8028093A9029093FF
:1006B000AA02E9CF0E941E030091A7021091A8028E
:1006C0002091A9023091AA02AB01BC01401B510B41
:1006D000620B730B8091B9029091BA02B0E0A0E076
:1006E00084179507A607B70748F462E070E08C2FDF
:1006F000DF91CF911F910F910C94CC0063E070E0DB
:10070000D111C1CFF4CF70E060E0F1CFAF92BF92D2
:10071000CF92DF92EF92FF920F931F93CF93DF93CD
:1007200000D0CDB7DEB769834A83880F991F009147
:100730004D0210914E02000F111FE7EFF1E09F01F3
:10074000275F31402017310714F41192F8CF298127
:10075000FC01E950FE4F21838A81808360E0809113
:100760004B020E9451021016110634F50150110976
:10077000F801E950FE4FC080B0904902A0904702B6
:1007800087E0E82EF12CD12CB6010E2C02C0759515
:1007900067950A94E2F761708A2D0E94510261E028
:1007A0008B2D0E94510260E08B2D0E94510281E04E
:1007B000E81AF10848F7D7CF61E080914B020F901B
:1007C0000F90DF91CF911F910F91FF90EF90DF90ED
:1007D000CF90BF90AF900C945102EF92FF921F9375
:1007E000CF93DF9320914D0230914E0282179307F1
:1007F000B4F4EC0123E0880F991F2A95E1F79C01DE
:10080000295F3D4F790111E0F70111927F0140E02E
:10081000612FCE010E9486031F5F1930A9F7DF9177
:10082000CF911F91FF90EF90089520914D0230914C
:100830004E0212161306B4F48830910599F020E8A0
:1008400030E002C0359527956A95E2F7FC01E95042
:10085000FE4F4089422B408B61E0680F90E080E0C2
:100860000C9486030895DF92EF92FF920F931F93EB
:10087000CF93DF93F12CE12CC7E0D0E007EF11E03C
:1008800088E0D82E80914C0190914D01E816F90630
:1008900034F580914D0290914E0218161906DCF441
:1008A000CE018E199F090897B4F4F701EB5BFE4F58
:1008B000E081E7FDE0E20E2E000CFF0BEE53FF4F50
:1008C0004491F801EE19FF09478B6D2D6E1990E0E8
:1008D00080E00E9486038FEFE81AF80AD3CFDF91F9
:1008E000CF911F910F91FF90EF90DF900895DF92CD
:1008F000EF92FF920F931F93CF93DF93EC01F12CB4
:10090000E12C07EF11E088E0D82E80914D02909104
:100910004E0218161906B4F4FE01EE0DFF1DE0811B
:10092000E7FDE0E20E2E000CFF0BEE53FF4F44916B
:10093000F801EE19FF09478B6D2D6E1990E080E0EC
:100940000E9486038FEFE81AF80A84E0E816F104A3
:10095000E1F6DF91CF911F910F91FF90EF90DF9023
:10096000089542E050E069E371E08AE591E00C947B
:10097000EF00CF93DF93D0E0C0E0009771F0FC016F
:1009800001900020E9F73197AF01481B590BBC01DA
:100990008AE591E00E94EF00EC010E94B1048C0F07
:1009A0009D1FDF91CF9108951F920F920FB60F9266
:1009B00011242F933F934F935F936F937F938F9364
:1009C0009F93AF93BF93EF93FF938AE591E00E94CB
:1009D0006D01FF91EF91BF91AF919F918F917F91A9
:1009E0006F915F914F913F912F910F900FBE0F909C
:1009F0001F9018951F920F920FB60F9211242F93EC
:100A00008F939F93EF93FF93E0916A01F0916B01B5
:100A10008081E0917001F091710182FD1BC0908195
:100A2000809173018F5F8F7320917401821741F061
:100A3000E0917301F0E0E65AFE4F958F80937301C9
:100A4000FF91EF919F918F912F910F900FBE0F907B
:100A50001F9018958081F4CF1F920F920FB60F92BE
:100A600011242F933F938F939F93AF93BF938091C4
:100A70003D0190913E01A0913F01B0914001309124
:100A80003C0123E0230F2D3758F50196A11DB11D20
:100A900020933C0180933D0190933E01A0933F0140
:100AA000B09340018091410190914201A091430196
:100AB000B09144010196A11DB11D80934101909315
:100AC0004201A0934301B0934401BF91AF919F9124
:100AD0008F913F912F910F900FBE0F901F901895FF
:100AE00026E8230F0296A11DB11DD2CFCF93DF932D
:100AF00010925D0110925C0188EE93E0A0E0B0E0FE
:100B000080935E0190935F01A0936001B0936101B7
:100B100081E291E090935B0180935A0185EC90E033
:100B2000909367018093660184EC90E09093690153
:100B30008093680180EC90E090936B0180936A0150
:100B400081EC90E090936D0180936C0182EC90E0D9
:100B500090936F0180936E0186EC90E09093710109
:100B600080937001109273011092740110927501BC
:100B70001092760110925102109255021092540276
:100B80001092560283E391E09093500280934F02BB
:100B9000EBE6F2E01082148213821582369682E030
:100BA000E73AF807B9F785E091E09093B2028093B5
:100BB000B10281E091E09093B4028093B30284E0AB
:100BC0008093B5028093B60289E091E09093B002E1
:100BD0008093AF028AE090E09093B8028093B702CE
:100BE00024EF31E03093BA022093B9021092BD0293
:100BF0001092BC021092AB021092AC021092AD02A5
:100C00001092AE021092BB02CCE0D0E0D09348022A
:100C1000C093470290934A02809349028BE090E090
:100C200090934C0280934B0281E090E090934E02AF
:100C300080934D0261E08CE00E94830261E080912C
:100C400049020E94830261E080914B020E9483026C
:100C500061E080914B020E945102D0934802C09300
:100C60004702E7E0F2E087E492E011928E179F07D7
:100C7000E1F7D0E0C0E080914D0290914E02C8179C
:100C8000D9073CF540E06FE0CE010E9486038091D9
:100C90004D0290914E02C817D9072CF447E06BE043
:100CA000CE010E94860340E069E0CE010E948603E7
:100CB000CE010E94ED0380914D0290914E02C81723
:100CC000D9072CF440E06CE0CE010E948603219607
:100CD000D2CFDF91CF910895789484B5826084BD9E
:100CE00084B5816084BD85B5826085BD85B5816030
:100CF00085BD80916E00816080936E0010928100AE
:100D00008091810082608093810080918100816068
:100D10008093810080918000816080938000809129
:100D2000B10084608093B1008091B00081608093B5
:100D3000B00080917A00846080937A0080917A007C
:100D4000826080937A0080917A00816080937A003B
:100D500080917A00806880937A001092C100E091BF
:100D60006A01F0916B0182E08083E0916601F0916D
:100D700067011082E0916801F09169018FEC808336
:100D800010927201E0916E01F0916F0186E0808314
:100D9000E0916C01F0916D01808180618083E09130
:100DA0006C01F0916D01808188608083E0916C011D
:100DB000F0916D01808180688083E0916C01F091F9
:100DC0006D0180818F7D808380914D0290914E02D4
:100DD0001816190634F441E06CE090E080E00E94BF
:100DE000860380914D0290914E021816190634F434
:100DF00048E06AE090E080E00E94860390E080E0B6
:100E00000E94ED03812C912C5401839470E0272ED5
:100E100070E0372E56E0652E48E5742E81E0809311
:100E2000BB020E941E030091AB021091AC02209104
:100E3000AD023091AE02AB01BC01401B510B620B05
:100E4000730B8091B7029091B802B0E0A0E08417D4
:100E50009507A607B70708F003C1C0E08091B50267
:100E6000C81760F4E091B102F091B202EC0FF11DED
:100E700062E080810E948302CF5FF0CF512C80918D
:100E8000B602581608F05FC0052D10E0E091B302DD
:100E9000F091B402E00FF11F61E080810E948302B3
:100EA000E091B302F091B402E00FF11F60E08081A5
:100EB0000E945102D501C401052C04C0880F991F5E
:100EC000AA1FBB1F0A94D2F76C017C01E094F09436
:100ED000412C8091B5024816F8F4C42DD0E0E09181
:100EE000B102F091B202EC0FFD1F80810E94250239
:100EF0002496CC0FDD1FC15BDD4F892B41F4888127
:100F000099818C299D29998388834394E2CF888194
:100F100099818E219F21F7CFE091B302F091B40225
:100F2000E00FF11F61E080810E9451028091B302C5
:100F30009091B402080F191F60E0E80188810E94B7
:100F4000830253949CCF0FE412E0E8018F8D98A1A7
:100F5000892B31F41C8EEFEFFFEFFE8FED8F19A27E
:100F600026962BE832E02C173D0781F7F12C809173
:100F7000B502F81608F052C0E12C8F2D90E0880FD2
:100F8000991FFC01E95AFD4F6F012091B602E2164C
:100F900008F042C0F601608171810E2C02C0769586
:100FA00067950A94E2F7F29E900111242E0D311DEF
:100FB000EFE4F2E080E0458D568D2417350709F403
:100FC00080C18F5F36968A30B1F760FF23C0EFE4AF
:100FD000F2E090E080E0448D411117C0E091AF0253
:100FE000F091B002E20FF31F4081689EF001699E0C
:100FF000F00D1124E15BFD4F448F368F258F10A239
:10100000178E61E00E942A0305C0019636968A3049
:10101000910509F7E394B9CFF394A9CFF12CF80126
:1010200081A18111F82E0A5F1F4FC017D107B9F7B0
:101030000E941E036093AB027093AC028093AD02DA
:101040009093AE02FF2061F080917002882341F0FE
:1010500080916E0290916F0210916B02019719F0CE
:101060001092BB0210E080910001882309F45CC05B
:10107000D0E0C0E061E070E0CE010E94150464E0C1
:1010800070E0CE010E9415042196C830D10591F779
:1010900062E070E090E080E00E94150463E070E0A0
:1010A00090E080E00E94150466E070E087E090E048
:1010B0000E94150465E070E087E090E00E9415044E
:1010C000113431F510924D0110924C0110924C01E7
:1010D00090E080E00E94ED030E941E03CB010E947D
:1010E000B4090EE411E0C2E5D1E00E94AF096AE064
:1010F00070E00E94220A805DF80181938F01CE1773
:10110000DF0799F78EE491E00E94B9041092000184
:101110002114310409F482CE0E945901882309F474
:101120007BCE0E94000076CE112391F3612F8AE5D9
:1011300091E00E948F010E94B1041A32B1F48091B3
:101140004C0190914D01009719F3FC01EB5BFE4FB0
:101150001082019790934D0180934C0190E080E0C4
:101160000E94ED030E943304D3CF1134C1F48EE406
:1011700091E00E9477048EE491E00E94B9040E94FD
:10118000E80210924D0110924C0110924C0190E037
:1011900080E00E94ED0381E080930001B9CF13321B
:1011A00009F072C080914C0190914D01049709F0B3
:1011B000AFCF90E080E00E94ED0380914E018093DC
:1011C000560180914F018093570180915001809387
:1011D00058018091510180935901A5E4B1E026E5C1
:1011E00031E0FD0150E040E09191E90189919E01DB
:1011F00098130AC04F5F5F4FCF010197EC017882CF
:10120000C9010197EC01788289E491E08E179F076C
:1012100059F730E020E06D91683581F0C6E5D1E006
:1012200090E080E0799167132AC02F5F3F4FED0176
:1012300021977882825B9E4FEC017886AE17BF07BC
:1012400051F7405D4093520181E480935301205D4A
:101250002093540182E48093550182E591E00E943D
:10126000770410924D0110924C0110924C01809124
:101270005201843309F04CCF0E94E80288CF0196D6
:101280008430910579F6DACF8FEB810F843008F442
:101290003FCFC0914C01D0914D01C430D10509F42C
:1012A00037CF209721F490E080E00E94ED03FE010B
:1012B000EB5BFE4F10832196D0934D01C0934C0100
:1012C00051CF61709FCE8F929F92AF92BF92CF927B
:1012D000DF92EF92FF92CF93DF93EC0168817981E7
:1012E0008A819B81611571058105910521F464E274
:1012F00079ED8BE597E02DE133EF41E050E00E947E
:10130000BF0949015A019B01AC01A7EAB1E40E945F
:10131000DE096B017C01ACEEB4EFA50194010E94E3
:10132000EC09DC01CB018C0D9D1DAE1DBF1DB7FF6F
:1013300003C00197A109B04888839983AA83BB831E
:101340009F77DF91CF91FF90EF90DF90CF90BF908C
:10135000AF909F908F9008950E946309089589E14E
:1013600091E00E9463090895B0E0A0E08093190124
:1013700090931A01A0931B01B0931C010895052EB0
:1013800097FB1EF400940E94D60957FD07D00E94D7
:10139000F10907FC03D04EF40C94D6095095409502
:1013A000309521953F4F4F4F5F4F08959095809511
:1013B000709561957F4F8F4F9F4F08950E94130A3C
:1013C000A59F900DB49F900DA49F800D911D112499
:1013D0000895B7FF0C94DE090E94DE09821B930B6F
:1013E0000895A1E21A2EAA1BBB1BFD010DC0AA1F66
:1013F000BB1FEE1FFF1FA217B307E407F50720F07E
:10140000A21BB30BE40BF50B661F771F881F991FF8
:101410001A9469F760957095809590959B01AC0141
:10142000BD01CF010895A29FB001B39FC001A39F4A
:10143000700D811D1124911DB29F700D811D11240D
:10144000911D089597FB072E16F4009407D077FDA1
:1014500009D00E94360A07FC05D03EF4909581958C
:101460009F4F0895709561957F4F0895AA1BBB1BF0
:1014700051E107C0AA1FBB1FA617B70710F0A61B94
:10148000B70B881F991F5A95A9F780959095BC01B5
:10149000CD010895EE0FFF1F0590F491E02D099402
:0414A000F894FFCFEE
:1014A4000105040302090807063132334134353695
:1014B40042373839432A3023440100000000000039
:1014C400008F01EF001C01DC014D012B013F0100E5
:0C14D400000000BF027F024E020D0A0063
:107E0000112484B714BE81FFF0D085E080938100F7
:107E100082E08093C00088E18093C10086E0809377
:107E2000C20080E18093C4008EE0C9D0259A86E02C
:107E300020E33CEF91E0309385002093840096BBD3
:107E4000B09BFECF1D9AA8958150A9F7CC24DD24C4
:107E500088248394B5E0AB2EA1E19A2EF3E0BF2EE7
:107E6000A2D0813461F49FD0082FAFD0023811F036
:107E7000013811F484E001C083E08DD089C08234E0
:107E800011F484E103C0853419F485E0A6D080C0E4
:107E9000853579F488D0E82EFF2485D0082F10E0AE
:107EA000102F00270E291F29000F111F8ED06801E7
:107EB0006FC0863521F484E090D080E0DECF843638
:107EC00009F040C070D06FD0082F6DD080E0C81688
:107ED00080E7D80618F4F601B7BEE895C0E0D1E017
:107EE00062D089930C17E1F7F0E0CF16F0E7DF06D8
:107EF00018F0F601B7BEE89568D007B600FCFDCFD4
:107F0000A601A0E0B1E02C9130E011968C91119780
:107F100090E0982F8827822B932B1296FA010C0160
:107F200087BEE89511244E5F5F4FF1E0A038BF0790
:107F300051F7F601A7BEE89507B600FCFDCF97BE46
:107F4000E89526C08437B1F42ED02DD0F82E2BD052
:107F50003CD0F601EF2C8F010F5F1F4F84911BD097
:107F6000EA94F801C1F70894C11CD11CFA94CF0C13
:107F7000D11C0EC0853739F428D08EE10CD085E9AC
:107F80000AD08FE07ACF813511F488E018D01DD067
:107F900080E101D065CF982F8091C00085FFFCCF94
:107FA0009093C60008958091C00087FFFCCF809118
:107FB000C00084FD01C0A8958091C6000895E0E648
:107FC000F0E098E1908380830895EDDF803219F02E
:107FD00088E0F5DFFFCF84E1DECF1F93182FE3DFCA
:107FE0001150E9F7F2DF1F91089580E0E8DFEE27F6
:047FF000FF270994CA
:027FFE00040479
:0400000300007E007B
:00000001FF
